:020000040800F2
:10000000800400209D010008111A0008A9190008A9
:100010000D1A0008A9160008992100080000000028
:10002000000000000000000000000000411E000869
:10003000AD16000800000000C51A0008711F000876
:10004000B7010008B7010008B7010008B7010008B0
:10005000B7010008B7010008B7010008B7010008A0
:10006000B701000871170008B7010008B7010008C0
:10007000B7010008B7010008B7010008B701000880
:10008000B7010008B7010008B7010008B701000870
:10009000B7010008B7010008B7010008B701000860
:1000A000B7010008B7010008B7010008B701000850
:1000B000B7010008B7010008B7010008B701000840
:1000C000B7010008B7010008B7010008B701000830
:1000D000B7010008B7010008B7010008B701000820
:1000E000B7010008B7010008B7010008B701000810
:1000F000B7010008B7010008B7010008B701000800
:10010000B7010008B7010008B7010008B7010008EF
:10011000B7010008B7010008B7010008B7010008DF
:10012000B7010008B7010008B7010008B7010008CF
:10013000B7010008B7010008B7010008B7010008BF
:10014000B7010008B7010008B7010008B7010008AF
:10015000B7010008B7010008B7010008B70100089F
:10016000B7010008B7010008B7010008B70100088F
:10017000B7010008B7010008B7010008B70100087F
:10018000B7010008B7010008DFF80CD000F014FB3D
:1001900000480047AD2E0008800400200648804734
:1001A00006480047FEE7FEE7FEE7FEE7FEE7FEE75C
:1001B000FEE7FEE7FEE7FEE70920000889010008E8
:1001C0002DE9FE4F804681EA0300C00F0C460090E7
:1001D00021F0004123F00045B8EB0200A94105D20F
:1001E0004046214690461C460B46024623F00040FE
:1001F000104347D0270DC7F30A00C3F30A510290FA
:10020000401A019040286BDAC3F3130040F4801BBE
:100210000098924620B10023D2EB030A63EB0B0B4C
:1002200001985946C0F14002504600F0F8F90646E0
:100230000D4650465946019A00F000FA10EB0800AE
:100240006141002487EA115284EAE7731A4340D0DF
:10025000009A62B3019A012A4FEA075215DC001B8B
:1002600061EB02014FF0004202EA0752CDE9004281
:10027000001C41F5801132462B4600F037FA03B0DE
:10028000BDE8F08F40462146F9E7001B61EB020113
:10029000001C41F5801300185B412018A2F50017DF
:1002A00047EB030140EAD570B6196D4111E06D08C6
:1002B0004FEA360645EAC0754FEA0752001B61EB6C
:1002C0000201001C41F5801149084FEA3000001975
:1002D000514132462B4603B0BDE8F04F00F0F7B96C
:1002E0000098012240000023D0EB020263EBE07390
:1002F000009821464FEAE074B8EB000061EB04017E
:10030000E9E783F000435BE781F0004158E72DE91E
:10031000FE4F81EA030404F0004421F00041009400
:100320004FF0000B23F0004350EA01045ED052EA84
:1003300003045BD0C3F30A54C1F30A552C44A4F25E
:10034000F3340194A0FB0254C1F3130141F4801172
:10035000C3F3130343F4801301FB024400FB034E79
:10036000840A970A44EA815447EA8357A4FB076842
:1003700002958D0A05FB07854FEA932C04FB0C546C
:100380002705029D4FEA065847EA1637B5EB0805E0
:100390006EEB070C870E920E47EA811742EA831232
:1003A000A7FB0201B6EB0B0164EB00042B0D43EA43
:1003B0000C335E1844EB1C50DA465146E7FB020151
:1003C000C5F313044FEA0B3343EA14534FEA0432E4
:1003D000019C43EA0603A4F10C040294009CCDE9BD
:1003E00000B400F083F903B0BDE8F08F00200146AF
:1003F000F9E72DE9F04D81EA030404F0004B21F008
:10040000004514464FF0000A23F0004150EA05026F
:1004100020D054EA01021DD0C5F30A570246C5F3A5
:100420001303C1F31300C1F30A5640F4801543F4DB
:100430008013A7EB0608101BD64608F2FD3873EBB5
:10044000050002D308F1010801E092185B41B8F100
:10045000000F03DA00200146BDE8F08D00204FF4C4
:100460008011064684460EE0171B73EB050705D383
:10047000121B63EB050306434CEA010C49084FEAE3
:10048000300092185B4150EA0107EDD152EA0300B7
:1004900012D082EA040083EA0501084305D0101B4C
:1004A000AB4106D20122002306E000224FF00043B8
:1004B00002E06FF0010253101AEB06004CEB0851FA
:1004C00010EB0A0041EB0B01BDE8F04D00F0FFB866
:1004D00000F0004230F000400AD0C10D01F560711B
:1004E000C0F3160042EA0151C208400711437047A9
:1004F000002001467047000030B5041E71F1000471
:1005000004DB4FF00044404264EB0101141E73F120
:10051000000405DB1C464FF00043524263EB04032A
:100520008B4208BF824230BD30B5041E71F1000419
:1005300004DB4FF00044404264EB0101141E73F1F0
:10054000000405DB1C464FF00043524263EB0403FA
:10055000994208BF904230BD01F0004330B421F011
:10056000004150EA010206D00A0DA2F56072C1F303
:100570001301002A02DC30BC00207047440F44EA1B
:10058000C104C100E01830BC00EBC25000F068B8F4
:1005900030B50B46014600202022012409E021FA53
:1005A00002F59D4205D303FA02F5491B04FA02F550
:1005B0002844151EA2F10102F1DC30BD2DE9F05FE7
:1005C0000546002092469B468846064681464024C2
:1005D0001BE0284641464746224600F0FFF85346B6
:1005E0005A46C01A914110D311461846224600F0CF
:1005F00016F82D1A67EB01084F462246012000210C
:1006000000F00DF817EB00094E41201EA4F1010483
:10061000DFDC484631462A464346BDE8F09F202AA3
:1006200004DB203A00FA02F1002070479140C2F149
:10063000200320FA03F3194390407047202A06DB79
:10064000CB17203A41FA02F043EAE07306E041FAA0
:1006500002F3D040C2F1200291400843194670478E
:100660000029A8BF7047401C490008BF20F00100C6
:10067000704710B4B0FA80FC00FA0CF050EA0104A4
:1006800004BF10BC704749B1CCF1200421FA04F436
:1006900011FA0CF118BF012121430843A3EB0C010F
:1006A000CB1D4FEA00614FEA102042BF002010BC72
:1006B000704700EBC35010440029A4BF10BC704722
:1006C000401C490008BF20F0010010BC704710B565
:1006D000141E73F1000408DA401C41F10001921865
:1006E0005B411A4301D120F0010010BD2DE9F04D0E
:1006F00092469B4611B1B1FA81F202E0B0FA80F263
:1007000020329046FFF78BFF04460F4640EA0A006E
:1007100041EA0B0153465A46084313D0114653EAA7
:10072000010019D0C8F14002504600F057F80546C4
:100730000E46504659464246FFF771FF084305D022
:10074000012004E020463946BDE8F08D0020054335
:1007500046EAE0762C4337430A986305E40AA0EBA7
:1007600008000022FD0A44EA47540A3002D500205E
:100770000146E9E7010510196941DDE9084500195D
:100780006941BDE8F04DA2E7C1F30A52C1F313017C
:1007900040F2FF3341F480119A4202DA0020014610
:1007A000704740F233439A42A2F2334202DC524293
:1007B00000F014B8FFF733BF064C074D06E0E068C1
:1007C00040F0010394E8070098471034AC42F6D398
:1007D000FFF7DEFC80310008A0310008202A04DB8E
:1007E000203A21FA02F00021704721FA02F3D040AA
:1007F000C2F1200291400843194670473EB50446B5
:100800000020009001900290684600F084FBBDF843
:100810000000BDF8021040EA014000EE100AB8EEF8
:10082000C00A84ED000ABDF80400BDF8061040EAD5
:10083000014000EE100AB8EEC00A84ED010ABDF8CE
:100840000800BDF80A1040EA014000EE100AB8EEB8
:10085000C00A84ED020A684600F02AFBBDF80000D9
:10086000BDF8021040EA014000EE100AB8EEC00ADE
:10087000D4ED000A30EE200A84ED000ABDF8040031
:10088000BDF8061040EA014000EE100AB8EEC00ABA
:10089000D4ED010A30EE200A84ED010ABDF808000B
:1008A000BDF80A1040EA014000EE100AB8EEC00A96
:1008B000D4ED020A30EE200A84ED020A002120461F
:1008C00000F066F83EBD3EB5044600200090019061
:1008D0000290684600F085FBBDF80000BDF80210EC
:1008E00040EA014000EE100AB8EEC00A84ED000AAA
:1008F000BDF80400BDF8061040EA014000EE100A01
:10090000B8EEC00A84ED010ABDF80800BDF80A106F
:1009100040EA014000EE100AB8EEC00A84ED020A77
:10092000684600F02BFBBDF80000BDF8021040EA5D
:10093000014000EE100AB8EEC00AD4ED000A30EE15
:10094000200A84ED000ABDF80400BDF8061040EA54
:10095000014000EE100AB8EEC00AD4ED010A30EEF4
:10096000200A84ED010ABDF80800BDF80A1040EA2B
:10097000014000EE100AB8EEC00AD4ED020A30EED3
:10098000200A84ED020A0121204600F001F83EBD54
:1009900070B52DED068B05460E46002458E036B1A5
:1009A000012E24D0022E2FD0032E4FD13DE005EB97
:1009B000840090ED000A10EE101A0846FFF788FD3B
:1009C00041EC1A0B9FED250B53EC102BFFF79FFC0E
:1009D00041EC190B9FED230B53EC102BFFF709FD96
:1009E00041EC180BFFF7B8FD45F824002EE005EBAD
:1009F000840090ED000ADFED1D0A80EE201A05EB61
:100A0000840080ED001A21E005EB840090ED000ADF
:100A1000DFED170A20EE200ADFED160A80EE201A1D
:100A200005EB840080ED001A10E005EB840090EDEA
:100A3000000ADFED110A20EE200ADFED0E0A80EE3B
:100A4000201A05EB840080ED001A00BF00BF641C73
:100A5000032CA4DBBDEC068B70BD00000000000081
:100A60000000D03F0000000000408F410000204BFC
:100A70000000B4430000004F0000C84210B501F070
:100A8000B7F8802000F075FF4FF4FA7000F05CFEBC
:100A900003214FF4BC4000F0F9FA43F60A714FF419
:100AA000CC4000F0F3FA012000F063FF09214FF47D
:100AB000C84000F0EBFA4FF4D84000F0C5FA044605
:100AC000214608A001F06AFB4FF4E84000F0BCFAB0
:100AD0000446214610A001F061FB1AA001F05EFB64
:100AE00010BD00000A3C3C2D414449532D494E465F
:100AF0004F2D3E3E20546865206669726D776172A5
:100B000065207265766973696F6E2069732030782D
:100B100025580D0A000000000A3C3C2D4144495371
:100B20002D494E464F2D3E3E205468652073657218
:100B300069616C206E756D20697320307825580DC1
:100B40000A0000000A3C3C2D414449532D494E46C1
:100B50004F2D3E3E204144495320696E69746961BE
:100B60006C697A6564207375636365737366756C0D
:100B70006C79210A0000000070B50446002532207F
:100B800000F0EEFD4FF4007000F05EFA0546002D17
:100B900036D032A001F002FB102D1AD006DC022D57
:100BA0000BD0042D0DD0082D23D10EE0202D14D014
:100BB000402D16D0802D1CD117E031A001F0EEFAA7
:100BC0001BE03F4801F0EAFA17E03E4801F0E6FA80
:100BD00013E03D4801F0E2FA0FE03CA001F0DEFA3C
:100BE0000BE046A001F0DAFA07E0504801F0D6FA2F
:100BF00003E04FA001F0D2FA00BF00BF002070BD9B
:100C0000082C13D006DC012C1CD0022C16D0042C8E
:100C10001CD10FE0102C05D0802C17D14EA001F074
:100C2000BDFA17E057A001F0B9FA13E061A001F096
:100C3000B5FA0FE06BA001F0B1FA0BE075A001F07E
:100C4000ADFA07E082A001F0A9FA03E08DA001F05F
:100C5000A5FA00BF00BF0120D1E700000A3C3C2DEF
:100C6000414449532D4552524F522D3E3E2041445E
:100C70004953206572726F723A0D0A0A0000000033
:100C8000094461746170617468206F766572727571
:100C90006E21506C6561736520696E697469617459
:100CA000652061207265736574207573696E6720B5
:100CB000746865205253542070696E2E0D00000038
:100CC00024310008F02F0008B83000080953656E81
:100CD000736F72206661696C75726521506C656115
:100CE0007365207265706561742074686520736136
:100CF0006D6520746573742E0D000000094D656DDF
:100D00006F7279206661696C75726521506C6561DE
:100D10007365207265706561742074686520736105
:100D20006D6520746573742E0D000000403000085E
:100D30000954686572652077657265206D756C74FD
:100D400069706C652072656769737465722065727D
:100D5000726F7273210D00000A3C3C2D41444953CF
:100D60002D494E464F2D3E3E20536F66747761727B
:100D700065207265736574207375636365656421AE
:100D80000D0A00000A3C3C2D414449532D494E4672
:100D90004F2D3E3E20466C617368206D656D6F720D
:100DA0007920746573742073756363656564210DC0
:100DB0000A0000000A3C3C2D414449532D494E464F
:100DC0004F2D3E3E20466C617368206D656D6F72DD
:100DD00079207570646174652073756363656564FB
:100DE000210D0A000A3C3C2D414449532D494E46F1
:100DF0004F2D3E3E2053656E736F722073656C6697
:100E00002074657374207375636363656564210D75
:100E10000A0000000A3C3C2D414449532D494E46EE
:100E20004F2D3E3E20466163746F72792063616C82
:100E30006962726174696F6E20726573746F726536
:100E4000207375636363656564210D0A000000000B
:100E50000A3C3C2D414449532D494E464F2D3E3EC0
:100E6000204269617320636F7272656374696F6E8B
:100E70002075706461746520737563636365656470
:100E8000210D0A000A3C3C2D414449532D494E4650
:100E90004F2D3E3E204F7065726174696F6E206900
:100EA0007320636F6D706C65746564210D0A0000BA
:100EB00010B504464FF4984000F0C6F82080322068
:100EC00000F04EFC4FF49C4000F0BEF860803220F1
:100ED00000F046FC4FF4A04000F0B6F8A0803220AD
:100EE00000F03EFC4FF4A44000F0AEF8E080322069
:100EF00000F036FC4FF4A84000F0A6F82081322024
:100F000000F02EFC4FF4AC4000F09EF860813220DF
:100F100000F026FC10BD10B504464FF4805000F0E0
:100F200093F82080322000F01BFC4FF4905000F02A
:100F30008BF86080322000F013FC4FF4A05000F0DA
:100F400083F8A080322000F00BFC4FF4B05000F08A
:100F50007BF8E080322000F003FC4FF4C05000F03A
:100F600073F82081322000F0FBFB4FF4D05000F0EA
:100F70006BF86081322000F0F3FB10BD10B5044621
:100F80004FF4804000F060F82080322000F0E8FB51
:100F90004FF4844000F058F86080322000F0E0FB0D
:100FA0004FF4884000F050F8A080322000F0D8FBC9
:100FB0004FF48C4000F048F8E080322000F0D0FB85
:100FC0004FF4904000F040F82081322000F0C8FB40
:100FD0004FF4944000F038F86081322000F0C0FBFC
:100FE00010BD10B504464FF4806000F02DF820804D
:100FF000322000F0B5FB4FF4C06000F025F86080AF
:10100000322000F0ADFB4FF4006000F01DF8A0802E
:10101000322000F0A5FB4FF4206000F015F8E080CE
:10102000322000F09DFB4FF4406000F00DF820816D
:10103000322000F095FB4FF4606000F005F860810D
:10104000322000F08DFB10BD70B504460025322023
:1010500000F086FB40200C490880322000F080FB25
:10106000204600F05DFE204600F05AFE40F6FF707C
:1010700000F056FE054640200349891E08803220B4
:1010800000F06EFB284670BD1A0802402DE9F041C1
:1010900004460D4644F40040E9B240EA010604F576
:1010A000807040F4004040EA152087B2322000F002
:1010B00057FB402009490880322000F051FB3046A0
:1010C00000F02EFE384600F02BFE40200349891E1A
:1010D0000880322000F044FBBDE8F0811A0802408D
:1010E00010B52DED0C8B92B000200F901090119048
:1010F0000C900D900E900FA8FFF780FB0CA8FFF747
:10110000E2FB9DED0E0A10EE101A0846FFF7E0F91B
:1011100041EC1D0B9FEDFE0B53EC102BFFF7F1F88C
:1011200041EC1C0B9FEDFC0B53EC102BFFF7EFF881
:1011300041EC1B0BFA4890ED041BB0EE410AF0EEB7
:10114000610A53EC102B51EC1B0BFFF739F8F44AF2
:10115000C2E90401104690ED041BB0EE410AF0EE26
:10116000610A9FEDF01B53EC112B51EC100BFFF7B4
:10117000DBF90FD3EA4890ED041BB0EE410AF0EE24
:10118000610A9FEDEA1B53EC112B51EC100BFFF79A
:10119000B3F90DD2E24890ED041BB0EE410AF0EE37
:1011A000610A51EC100B81F00041DD4AC2E90401F3
:1011B0009DED0F0ADFEDDF0AB4EEE00AF1EE10FA62
:1011C00001DD012000E0002000EE100AB8EEC00AA8
:1011D000DFEDD90AB4EEE00AF1EE10FA2DD29DED62
:1011E000100ADFEDD40AB4EEE00AF1EE10FA01DDE8
:1011F000012000E0002000EE100AB8EEC00ADFED8A
:10120000CE0AB4EEE00AF1EE10FA16D29DED110A04
:10121000DFEDC80AB4EEE00AF1EE10FA01DD0120BC
:1012200000E0002000EE100AB8EEC00ADFEDC20AAE
:10123000B4EEE00AF1EE10FA7ED39DED0C0ADFED7C
:10124000BF0A20EE200A8DED0C0A9DED0D0ADFEDA0
:10125000BB0A20EE200A8DED0D0A9DED0E0ADFED92
:10126000B70A20EE200A8DED0E0ADDED0F0A60EEC2
:10127000A00A9DED101ADDED101A41EE210A9DED38
:10128000111ADDED111A41EE210AB0EE600A01F0EB
:10129000EFFDB0EE408ADDED0F0AB0EE480A20EE19
:1012A000800A8DED0F0ADDED100AB0EE480A20EE3F
:1012B000800A8DED100ADDED110AB0EE480A20EE2D
:1012C000800A8DED110A9E4890ED000A9D48D0EDF0
:1012D000000A20EE200A9C48D0ED000A9B4890EDC1
:1012E000001A00EEC10AF0EE000A20EE200A8DED91
:1012F000090A954890ED000A9148D0ED000A20EEC9
:10130000200A9248D0ED000A8E4890ED001A00EEB7
:10131000810AF0EE000A20EE200A8DED0A0A8A48C2
:1013200090ED000A20EE000A8648D0ED000A90ED0C
:10133000001A00EE810A00E05EE0F6EE000A30EEF0
:10134000600AF0EE000A20EE200A8DED0B0A9DEDFA
:10135000100ADDED0B0A20EE200ADDED110A9DEDED
:101360000A1A00EEC10A8DED060A9DED110ADDEDA7
:10137000090A20EE200ADDED0F0A9DED0B1A00EEA2
:10138000C10A8DED070A9DED0F0ADDED0A0A20EE78
:10139000200ADDED100A9DED091A00EEC10A8DED5F
:1013A000080A9FED6B0A6B4880ED000A9FED680A02
:1013B00080ED010A9FED660A80ED020A9DED0C0AA0
:1013C000DDED060A9FED641A01EE200A8DED0C0A90
:1013D0009DED0D0ADDED070A9FED5F1A01EE200A73
:1013E0008DED0D0A9DED0E0ADDED080A9FED5A1AEE
:1013F00001EE200A8DED0E0A9DED0C0ADFED570A75
:1014000020EE200A8DED0C0A9DED0D0ADFED530A4A
:1014100020EE200A8DED0D0A9DED0E0ADFED4F0A3C
:1014200020EE200A8DED0E0A4748D0ED008A444890
:1014300090ED009A4548D0ED009A424890ED00AA00
:101440009DED0C0AF1EE490A20EE200ADDED0D0AB1
:1014500009EEE00ADDED0E0A0AEE600A3A48D0ED28
:10146000000A30EE200A80ED000A9DED0C0A20EE05
:10147000280ADDED0E0A09EEA00ADDED0D0A0AEEDE
:10148000600A2F48D0ED000A30EE200A80ED000AF5
:101490009DED0D0A20EE280ADDED0E0A09EE600A28
:1014A000DDED0C0A0AEE200A2848D0ED000A30EEE5
:1014B000200A80ED000A9DED0E0A20EE280ADDEDDF
:1014C0000D0A09EE200ADDED0C0A09EEE00A1D48BE
:1014D000D0ED000A30EE200A80ED000A1A48D0ED67
:1014E000000A60EEA00A164890ED001AD0ED001A2E
:1014F00041EE210A154890ED001AD0ED001A41EE98
:10150000210A104890ED001AD0ED001A28E00000E2
:1015100008AC1C5A643B9F3F00000040E17A743FD6
:101520005000002000000000008066400000000025
:10153000008066C06F1203BA6F12033A728A8E3C43
:101540003800002040000020340000203C00002033
:10155000000000007400002000000C420AD7233B6A
:1015600041EE210AB0EE600A01F082FCB0EE408A42
:10157000474890ED000A20EE080A80ED000A454831
:1015800090ED000A20EE080A80ED000A424890ED36
:10159000000A20EE080A80ED000A404890ED000A9B
:1015A00020EE080A80ED000A3A4890ED000A3B4818
:1015B000D0ED000A20EE200A3548D0ED000A36486A
:1015C00090ED001A00EEC10AF0EE000A20EE200AAB
:1015D0008DED010A2F4890ED000A2D48D0ED000A4C
:1015E00020EE200A2D48D0ED000A2B4890ED001A7D
:1015F00000EE810AF0EE000A20EE200A8DED020ACC
:10160000234890ED000A20EE000A2248D0ED000A9F
:1016100090ED001A00EEC10A1F48D0ED000A90EDCF
:10162000001A00EEC10A1D48D0ED000A90ED001A24
:1016300000EE810A8DED030ADDED010AB0EE600ACD
:1016400000F0D0FDDFED160A20EE200A10EE104A61
:101650002046FEF73DFF134A03C29DED031AF0EE4C
:10166000410A9DED021AB0EE410A00F051FEDFED95
:101670000C0A20EE200A10EE104A2046FEF728FF42
:10168000084AC2E9020112B0BDEC0C8B10BD00008B
:1016900034000020380000203C00002040000020E2
:1016A000333365425000002000BFFEE77047000062
:1016B00000B587B00121084600F006FA012110208C
:1016C00000F012FA07220A211D4800F02FF9072224
:1016D00009211B4800F02AF900208DF81A0001208A
:1016E0008DF81B0002208DF81800000205900220E2
:1016F0008DF8190005A9124800F0D0F802208DF8E5
:1017000018004002059005A90D4800F0C7F84FF4F5
:10171000E13001900020ADF80800ADF80A00ADF806
:101720000C00ADF810000C20ADF80E0001A9054822
:1017300000F0C4FC0121034800F0A6FC07B000BD86
:10174000000002400010014001B504490098086003
:1017500000BF024800680028FBD108BD2C00002013
:10176000C10000BF0A1EA1F10101FBD170470000BA
:1017700010B5082000F03CF828B1012002490860AB
:10178000082000F003F810BD240000200149086083
:1017900070470000143C01401FB50121084600F0CD
:1017A00093F90121880300F09FF900F032F9082035
:1017B000029000208DF80C008DF80F0002A90B4854
:1017C00000F06CF80321002000F03CFB08200090A2
:1017D00000208DF8040008208DF8050001208DF808
:1017E0000600684600F010F81FBD0000000002402F
:1017F00001460020034A12680A400AB1012000E0B5
:1018000000207047143C0140002123498279002ABE
:101810003AD00A46126803689A430B461A600A1DBA
:10182000126803689A430B1D1A60027911440A6812
:1018300003681A430A60184A0832126803689A4318
:10184000154B08331A601A1D126803689A43124B2D
:101850000C331A604279102A0ED11A1F12680368DD
:101860001A430D4B08331A601A1D126803681A4395
:10187000094B0C331A600DE00749427911440A689C
:1018800003681A430A6005E0027911440A68036894
:101890009A430A6070470000003C0140F0B50A46D8
:1018A00000210023002400BF3DE0012505FA01F3DB
:1018B000156805EA03049C4234D105684F000326ED
:1018C000BE40B543056015794E00B5400668354306
:1018D00005601579012D02D01579022D16D1856884
:1018E0004F000326BE40B543856055794E00B54094
:1018F000866835438560456801268E40B54345605E
:10190000456896798E40B6B235434560C5684F004C
:101910000326BE40B543C560D5794E00B540C668C4
:101920003543C560491C1029BFD3F0BDF0B5002375
:1019300000244D07ED0E02FA05F3CE1000F120054C
:1019400055F826504E07F70E0F26BE40B543CF1070
:1019500000F1200646F82750CE1000F1200555F87A
:10196000265045EA0304CE1000F1200545F8264034
:10197000F0BD10B50446C820FFF7F2FE802C02D15E
:10198000FA20FFF7E1FE21464FF4D040FFF77EFB3F
:10199000802C02D1FA20FFF7D7FEC820FFF7E0FE27
:1019A0002046FFF7E9F810BD00BFFEE71CB5012196
:1019B000202000F089F84020009001208DF80400DC
:1019C00000208DF8060001208DF8070000208DF81A
:1019D000050069460C48FFF761FF802000906946CA
:1019E0000948FFF75BFF4FF4807000906946064896
:1019F000FFF754FF402004491831088080200880F8
:101A0000400008801CBD00000014024000BFFEE73B
:101A1000704708B54FF4C06000F04AF809208DF80F
:101A2000000001208DF801008DF802008DF8030000
:101A3000684600F001F808BD70B5002100230F22B0
:101A4000C4781CB3174C246804F4E064C4F5E06463
:101A5000C4F30721C1F10404E3B20A4144789C4075
:101A6000E1B28478144021430C07210E0E4C057816
:101A70006155047804F01F050124AC4005786D1110
:101A8000AD0005F1E025C5F8004109E0047804F057
:101A90001F050124AC40054D0678761145F8264017
:101AA00070BD00000CED00E000E400E080E100E02B
:101AB00002490143024A1160704700000000FA0524
:101AC0000CED00E07047000029B1064A126802439D
:101AD000044B1A6004E0034A12688243014B1A6007
:101AE000704700003038024029B1064A12680243AC
:101AF000044B1A6004E0034A12688243014B1A60E7
:101B00007047000044380240F0B500210022002454
:101B1000022500260223324F3F6807F00C0121B155
:101B2000042905D0082937D105E02E4F076036E09B
:101B30002D4F076033E02A4F3F1F3F68C7F38056A1
:101B4000274F3F1F3F6807F03F036EB1264FB7FB9B
:101B5000F3F7DFF88CC0ACF1040CDCF800C0CCF378
:101B6000881C07FB0CF40CE01E4FB7FBF3F7DFF803
:101B700070C0ACF1040CDCF800C0CCF3881C07FB8F
:101B80000CF4174F3F1F3F68C7F301477F1C7D00D0
:101B9000B4FBF5F7076002E0124F076000BF00BF1B
:101BA0000F4F3F6807F0F0010909104F7A5C076892
:101BB000D74047600A4F3F6807F4E051890A0B4F4E
:101BC0007A5C4768D7408760054F3F6807F46041FB
:101BD000490B064F7A5C4768D740C760F0BD0000EC
:101BE000083802400024F40040787D0114000020F1
:101BF00000B587B001210620FFF766FF0121080329
:101C0000FFF772FF052203212D48FFF78FFE052203
:101C100004212B48FFF78AFE052211462848FFF7CA
:101C200085FE0820009002208DF805008DF8040044
:101C300000208DF806008DF8070069462048FFF760
:101C40002DFE1020009069461D48FFF727FE20203A
:101C5000009069461A48FFF721FE402000900120BD
:101C60008DF8040069461748FFF718FE4020154913
:101C7000183108800020ADF808004FF48270ADF8EC
:101C80000A00C814ADF80C000220ADF80E000120C7
:101C9000ADF810004002ADF812002820ADF8140095
:101CA0000020ADF816000720ADF8180002A906487C
:101CB00000F088F80121044800F06AF807B000BD80
:101CC00000040240000802400030014010B500242A
:101CD0004FF4E440FFF7B8F9044644F2510084425F
:101CE00004D0054800F05AFA002010BD214603A098
:101CF00000F054FA0120F8E7942F00080A3C3C2D2C
:101D0000414449532D494E464F2D3E3E20414449C2
:101D100053204944203D20307825580A0A0000000D
:101D200010B504464FF480501749086009E0164981
:101D30000868411E144A116018B9022000F060F8CA
:101D400010BD0221114800F02FF80028EFD02146E5
:101D50000E4800F035F84FF480500B49086009E058
:101D600009490868411E084A116018B9032000F0AB
:101D700047F8E5E70121054800F016F80028EFD004
:101D8000024800F01AF8DBE728000020003001408C
:101D900021B1028842F04002028004E002884FF63E
:101DA000BF731A40028070470246002013890B401F
:101DB0000BB1012000E00020704701468889704780
:101DC0008181704710B50022028802F441520B88CD
:101DD0004C8823438C882343CC8823430C8923439A
:101DE0004C8923438C892343CC8923431A430280A3
:101DF000838B4FF2FF74234083830B8A038210BDD1
:101E000010B50446214602A000F0C8F9002010BD1C
:101E10000A3C3C2D414449532D4552524F522D3ED0
:101E20003E2053504920B5C8B4FDB3ACCAB12165BA
:101E300072726F72436F6465203D2025640A000052
:101E40007047000030B500228B071C0F0F2303FAE8
:101E500004F20B4B8C1053F824309343084C8D1034
:101E600044F8253023468C1053F824308C07240F77
:101E700000FA04F42343024C8D1044F8253030BDA1
:101E8000083801400CB500200190009034480068EB
:101E900040F480303249086000BF3148006800F4E7
:101EA000003000900198401C0190009818B90198EA
:101EB000B0F5A04FF1D12A48006800F4003010B10D
:101EC0000120009001E0002000900098012846D1F8
:101ED00023484030006840F080502149403108607C
:101EE0002048006840F440401E4908601C48083003
:101EF00000681B49083108600846006840F400404B
:101F000008600846006840F4A05008601648091FA1
:101F10000860081F006840F08070091F086000BF5B
:101F20000F48006800F000700028F9D040F20570FA
:101F30000E4908600A480830006820F0030008498C
:101F4000083108600846006840F00200086000BFE1
:101F500003480830006800F00C000828F8D10CBDD8
:101F6000003802400070004019544007003C024015
:101F700010B500F07DF800240CE0084850F824006B
:101F800030B1064850F82400401E044941F82400AE
:101F9000601CC4B2032CF0DB10BD00006800002000
:101FA00030B5164800684FF47A72B0FBF2F1481E63
:101FB000B0F1807F01D301201BE0481E4FF0E022EA
:101FC000506150170F22002807DA13071D0E0C4B23
:101FD00000F00F04241F1D5503E013071C0E094BCE
:101FE0001C5400BF00204FF0E022906107201061D8
:101FF000002008B100BFFEE730BD00000000002057
:1020000018ED00E000E400E010B51548006840F469
:102010007000134908601348006840F0010011493E
:10202000086000200F49083108600E4800680E491A
:1020300008400C4908600D48091D0860081F006829
:1020400020F48020091F0860002006490C31086038
:10205000FFF718FF4FF0006001498039086010BD9C
:1020600088ED00E000380240FFFFF6FE103000244B
:102070000448006820B103480068401E0149086018
:10208000704700002C00002021B1828942F40052E8
:10209000828104E082894DF6FF731A408281704785
:1020A00002460020B1F5007F00D100BF13880B402D
:1020B0000BB1012000E00020704700002DE9FF4730
:1020C00005460E460024A14600BFA046B08900B1D7
:1020D00000BF2C8A24F44054F08804432C82AC893D
:1020E00041F20C608443B088318908437189084308
:1020F0000443AC81AC8A24F44074B0890443AC82BC
:102100006846FFF701FD2048854202D01F488542FE
:1021100002D1DDF80C9001E0DDF80890A88900F408
:10212000004040B109EBC90000EB091031684900DB
:10213000B0FBF1F707E009EBC90000EB09103168CB
:102140008900B0FBF1F76420B7FBF0F0040120092F
:10215000642101FB1078A88900F4004040B13220CE
:1021600000EBC800B0FBF1F000F00700044308E00A
:10217000322000EB08106421B0FBF1F000F00F00FA
:1021800004432C81BDE8FF8700100140001401408A
:10219000C1F308028280704700BFFEE70FB4054B11
:1021A00010B503A9044A029800F0B8FA10BC5DF813
:1021B00014FB00004D2E00084400002041000802DE
:1021C00018BF04200A0E18BF40F001004FF07F42F4
:1021D00032EA010108BF40F00200012808BF0520D3
:1021E0007047000010B54FF00E402DED028BB0EEA1
:1021F000408A18EE104A00EB4400B0F1506F4AD804
:102200004FF0FC40B0EB440F22D2B0EEC80AF7EE1C
:10221000000A30EEC00AF6EE000A60EE208A18EEE0
:10222000900A00F097FE01EE100A14F0004F1DBF57
:10223000DFED2D0A9FED2D0AB1EE411ADFED2C0ADC
:1022400008BF9FED2C0AF8EE001A21EE218A05E066
:10225000DFED290A68EE088AB0EE600A9FED271AC2
:10226000DFED271A30EE080A48EE811A9FED251A95
:1022700008EEA11ADFED241A48EE811A9FED231A09
:1022800008EEA11A68EE281ABDEC028B01EE810A55
:1022900030EE200A10BD4FF0E440B0EB440F0CD9F3
:1022A00018EE100AFFF78AFF042808BF00F066F94D
:1022B000B0EE480ABDEC028B10BD4FF07F40B0EB92
:1022C000440F07D2B0EE480ABDEC028BBDE81040C7
:1022D00000F046B9012000F069F9BDEC028BBDE8C1
:1022E000104000F043B900000000C9BF22AAFDB9A8
:1022F0000000C93F22AAFD390000000024FE1C3D59
:10230000C78AD83C1E67383D1B93993DAFAA2A3E29
:1023100010EE100A10B510EE901A4FF0684202EB62
:1023200040032DED028BB3F1654F3CBF02EB410240
:10233000B2F1654F7CD200BFC0F3C753C1F3C7529F
:102340009A1A1B2A09DD10F0004F14BF9FED6E0A88
:102350009FED6E0ABDEC028B10BD12F11A0F1BDA55
:1023600011F0004F09D010F0004F0CBF9FED680A2C
:102370009FED680ABDEC028B10BD80EE208A18EE3E
:10238000100AFFF71BFF042808BF00F0F7F8B0EEB3
:10239000480ABDEC028B10BD4200B2EB410F37D9A9
:1023A00010F0004F19BFDFED5C1A9FED5C1ADFEDF6
:1023B0005C1A9FED5C1AB0EE602A0A46F1EE400A04
:1023C00080F00041B0EE420A10460A1A5200B2F103
:1023D000807F34D2484010F0004FDFED532A9FED4C
:1023E000533A1DBFBEEE002A71EEE21A31EE431AD7
:1023F000B6EE002A04BF71EEA21A31EE031AF0EE17
:10240000402A42EE602A40EE020A82EEA02A18E03C
:1024100011F0004F04BF9FED461AF0EE411AD4D0E0
:1024200010F0004F1CBFDFED431A9FED431A00E090
:1024300026E004BFDFED411A9FED411AC5E780EEAB
:10244000202A22EE020ADFED3F0ADFED3F2ABDEC33
:10245000028B40EE202ADFED3D0A40EE220ADFED3E
:102460003C2A40EE202ADFED3B0A40EE220A22EE13
:10247000000A00EE201A31EE020A30EE210A10BDE9
:102480004FF07F42B2EB400F28BFB2EB410F05D2B5
:10249000BDEC028BBDE8104000F065B840EA0103D6
:1024A0005B0008BF41F0FF410BD0B2EB400F08BF0B
:1024B000B2EB410F08D120F0804000EE100A21F06D
:1024C000804100EE901A37E7B2EB400F12BF5FEA8F
:1024D000410240F0FF4001F000413FF42DAF4A00BF
:1024E00092EA40033FF528AF002AACBF9FED1A1ACD
:1024F0009FED1A1A20EE010A60EE810A10EE100A12
:1025000010EE901A18E70000DB0FC9BFDB0FC93FC0
:10251000DB0F4940DB0F49C00000C9BF22AAFDB94B
:102520000000C93F22AAFD390060ED3EC30ACE3744
:1025300000000000000049C022AA7DBA0000494006
:1025400022AA7D3A2DAD65BD8FB8D53D0FB511BE20
:1025500061C84C3EA8AAAABE0000804F0000802F90
:1025600030EE000A704730EE200A7047DFED020AB5
:1025700080EEA00A70470000000000009FED020AF4
:1025800020EE000A704700000000001002E008C8BA
:10259000121F08C1002AFAD170477047002001E0DD
:1025A00001C1121F002AFBD17047000001490860D9
:1025B00070470000480000202DE9FF5FDDE90220A0
:1025C000010DDDF838B0024318D044F61050A1F2E6
:1025D000FF3141430D140F98012820D0A5EB0B00CB
:1025E000401C5FEA000A4FF00004474EDFF81C91E0
:1025F000A046504616D5CAF1000728E00F980124DE
:1026000043A2012808D0002100980F9BC0E90021B7
:10261000C0E90243BDE8FF9F6FEA0B01F4E7CBF18D
:102620000000DEE7074612E0F80707D022463346EF
:1026300040464946FDF76BFE8046894622463346B2
:1026400010461946FDF763FE04460E467F10002F24
:10265000EAD1DDE90201BAF1000F42464B4602DA47
:10266000FDF755FE01E0FDF7C4FE04460E460022CC
:10267000284BFDF759FF03D84FF0FF30014607E024
:102680000022254B20463146FDF79AFDFEF77CF8E7
:10269000102409E0002C0ADB0A220023FDF78EFF3C
:1026A000019B30321A55641E50EA0102F2D1641CBB
:1026B000019AC4F1110314440F9A012A03D0012294
:1026C00008430DD10AE0084304D000204FF0110B5D
:1026D0000F9080E7A3EB0B056D1E0DE05B4504DD5D
:1026E0004FF0000205F1010504E003DA4FF00002AB
:1026F000A5F10105002AECD000980F99C0E902313C
:10270000C0E9004586E70000000024400000F03FDB
:10271000300000000000F0430000E03F2DE9FF4FD3
:1027200095B09B468946064600250FE2252877D1BD
:1027300000242746F84A0121059400E0044316F8D6
:10274000013F203B01FA03F01042F7D130782A28EC
:1027500011D06FF02F033078A0F13002092A16D87B
:10276000059A44F0020402EB820203EB4202104499
:10277000761C0590EFE759F8042B0592002A03DA3E
:10278000504244F40054059044F00204761C307822
:102790002E2816D116F8010F44F004042A280DD073
:1027A0006FF02F023078A0F13003092B09D807EB26
:1027B000870302EB4303C718761CF3E759F8047B41
:1027C000761C30786C280FD006DC4C2817D068288F
:1027D0000DD06A2814D104E0742810D07A280FD1C3
:1027E0000DE044F400140AE044F4801401E044F4E1
:1027F00040147278824202D104F58014761C761C53
:10280000307866280BD013DC582877D009DC0028F4
:1028100075D04528F6D04628F4D047281AD19DE136
:1028200018E0632835D0642879D0652812D195E165
:10283000702873D008DC6728F1D069286FD06E2823
:102840000DD06F2806D1B5E073282CD0752875D02F
:10285000782874D05A46179990476D1C75E1C4F3D7
:102860000250022809D003280DD0D9F800100428FE
:102870000DD00D6009F1040967E1D9F80010EA17DD
:10288000C1E90052F6E7D9F800100D80F2E70D70AB
:10289000F0E719F8041B8DF8001000208DF80100F6
:1028A000EA46012003E059F804AB4FF0FF3061071E
:1028B0004FF0000102D40DE008F101018846B94251
:1028C0000FDA8045F8DB1AF808100029F4D108E087
:1028D00008F1010188468142FADB1AF80810002944
:1028E000F6D105985B46A0EB080721463846179AB3
:1028F00000F094FA284400EB080507E04DE029E1D8
:102900000DE01AF8010B5A4617999047B8F10108E3
:10291000F7D25B4621463846179A13E142E00A2275
:102920000092C4F302524FF0000A022A08D059F86C
:1029300004CB032A4FEAEC710AD00DE029E02AE02B
:1029400009F1070121F00702F2E802C1914609E00E
:102950000FFA8CFC4FEAEC71042A03D14FFA8CFC7D
:102960004FEAEC71002907DA0A460021DCF1000C7D
:1029700061EB02012D2202E0220504D52B228DF805
:102980000420012203E0E20701D02022F7E790466D
:1029900059E00A2102E010220DE010214FF0000A58
:1029A00000910BE010224FF0000A44F004040827C5
:1029B000009203E008224FF0000A0092C4F3025292
:1029C000022A05D059F804CB0021032A08D009E0D7
:1029D00009F1070121F00702F2E802C1914605E082
:1029E0001FFA8CFC042A01D10CF0FF0C4FF00008F8
:1029F000220728D5702806D0009B83F0100353EAE5
:102A00000A0305D00EE040228DF80420012208E0E0
:102A10005CEA010206D030228DF804208DF8050012
:102A200002229046009B83F0080353EA0A030AD16E
:102A30005CEA010201D1620705D530228DF804203D
:102A40004FF001087F1E582804D034A003900EA830
:102A500002900DE036A0F9E753466046009AFDF774
:102A6000ADFD84460398825C0298401E029002707D
:102A70005CEA0100F0D1029806A9081A00F1200AC8
:102A8000600702D524F4803400E00127574502DDB9
:102A9000A7EB0A0000E0002000EB0A010090059877
:102AA0004144401A0590E00306D45B462146179A3C
:102AB000059800F0B3F90544002706E001A85A463E
:102AC000C05D179990476D1C7F1C4745F6DBE003FE
:102AD0000CD55B462146179A059800F09FF90544EE
:102AE00004E030205A46179990476D1C0099481E03
:102AF00000900029F5DC08E0029802995A46007817
:102B0000491C0291179990476D1CBAF10001AAF176
:102B1000010AF1DC65E1000009280100303132339F
:102B20003435363738396162636465660000000009
:102B300030313233343536373839414243444546F3
:102B40000000000000F058F90544761C3078002899
:102B50007FF4ECAD19B02846BDE8F08F620700D4D1
:102B6000062709F1070222F0070CFCE80223E146E0
:102B700003F000485FEA080C02D00FF2702C0DE061
:102B80005FEA045C02D50FF2682C07E05FEAC47CC0
:102B900002D00FF2602C01E0AFF2700C4FF0FF3862
:102BA00023F00043CDF850C065280CD006DC452842
:102BB00009D046281DD047283DD13DE0662818D0D1
:102BC00067287ED138E00021112F01DB112000E0C1
:102BD000781CCDE9000106A90EA8FFF7EDFCDDE9A0
:102BE0000F010E9A03910021009207F1010A04914E
:102BF0004DE04FF000400097CDE9011006A90EA866
:102C0000FFF7DAFCDDE90F0203920E9B1199002217
:102C1000DDF80CA00093049211B9791C00EB010AB5
:102C2000B7EB0A0004D4C0F1FF3007F1010A0490A9
:102C3000AAEB0700019044E0012F00DA01270021F0
:102C4000112F01DD112000E03846CDE9000106A971
:102C50000EA8FFF7B1FCDDE90F010E9A03910021E8
:102C600004910092BA4621070CD40399514500DA29
:102C70008A46BAF1010F05DD009AAAF10101515C03
:102C8000302908D0B84202DA10F1040F06DA012127
:102C9000CDE9011015E0AAF10101E9E7002805DC02
:102CA000049901440491AAEB000102E0411C514542
:102CB00000DD8A460499401A401C01904FF0004004
:102CC0000290200704D40198504501DBCDF8048020
:102CD00000208DF84F0002980DF14F07B0F1004F22
:102CE00025D02B200E9002984FF0020800280CDA15
:102CF000404202902D200E9007E00A210298FDF735
:102D000047FC3031029007F8011DB8F10001A8F12D
:102D10000108F2DC02980028EFD1791E0E980870A5
:102D2000307800F0200040F0450007F8020D12A8AE
:102D3000C01B00F107081498007800B1012000EBD7
:102D40000A01019801EBE07105984144401A401EC8
:102D50000590E00306D45B462146179A059800F0DB
:102D60005DF805441498007818B15A4617999047B1
:102D70006D1CE00324D55B462146179A059800F0A8
:102D80004DF805441CE00498002807DBDDE9030149
:102D9000884203DD0098405C179901E017993020C4
:102DA0005A469047049805F10105401C049001988B
:102DB000401E019004D12E205A46179990476D1C51
:102DC000BAF10001AAF1010ADDDC05E017F8010BF8
:102DD0005A46179990476D1CB8F10001A8F10108F7
:102DE000F4DC5B462146179A0598ABE62D000000FF
:102DF0002B000000200000002DE9F04104460025D2
:102E00001E461746880404D405E039462020B04702
:102E10006D1C641EF9D52846BDE8F0812DE9F0410E
:102E2000044600251E469046C80301D5302700E021
:102E30002027880404D505E041463846B0476D1C7C
:102E4000641EF9D52846BDE8F081000070B504463F
:102E50000D46E1B20548FFF79BF900BF802103480A
:102E6000FFF71EF90028F9D0204670BD0010014080
:102E7000F0EE400AF6EE001A60EEA11AB0EE611A0A
:102E8000B0EE600A10EE100A0749A1EB600000EEF8
:102E9000100A21EE002AF7EE081A42EE401A61EEFF
:102EA000801AB0EE610A7047DF59375F1FB5FEF731
:102EB0007DFDFFF775F8FEF7FBFBFEF76DFCFDF7F8
:102EC000DDFDFEF703FFE8B11BE013480068C0B169
:102ED000FEF706F9114890ED040B8DED020B90ED15
:102EE000020B8DED000B90ED001BB0EE410AF0EEF1
:102EF000610A53EC102B0AA0FFF750F90020064995
:102F00000860E2E74020124908808020891E08807E
:102F10004000088000BFFEE7240000205000002091
:102F20002079B8A9D1F6BDC73D25332E35662C20B2
:102F300078BAE1B9F6BDC73D25332E3566A3AC7A24
:102F4000C6ABBABDBDC73D25332E35660A000000AD
:102F50001A14024010B500EE100A2DED028BB1EEEE
:102F6000C08A18EE100A20F00040C0F1FF40C00FE8
:102F70000AD010EE100A20F00040C0F1FF40C00F50
:102F800004BF0120FFF712FB18EE100ABDEC028B04
:102F900010BD00000A3C3C2D414449532D4552527E
:102FA0004F522D3E3E204144495320646563746571
:102FB00063746564206572726F72210D0ABCECB295
:102FC000E2B2BBB5BD414449533136343635C4A3B2
:102FD000BFE9A3ACC7EBBCECB2E9C4A3BFE9D3EB38
:102FE000BFAAB7A2B0E5B5C4BDD3CFDF0D0A0A00B2
:102FF0000953504920636F6D6D756E696361746923
:103000006F6E206572726F7221506C6561736520FE
:103010007265706561742074686520707265766988
:103020006F757320636F6D6D756E69636174696F21
:103030006E2073657175656E63652E0D000000006E
:1030400009436C6F636B206572726F7221506C65FF
:103050006173652061646A757374207468652066A5
:1030600072657175656E6379206F6620746865207E
:10307000636C6F636B207369676E616C206F6E2089
:103080007468652053594E432070696E20746F2018
:103090006F7065726174652077697468696E2074F9
:1030A000686520617070726F7072696174652072FA
:1030B000616E67652E0D0000095374616E6462795C
:1030C000206D6F6465215768656E2056444420A1C9
:1030D000DD20322E38205620666F722032353020A7
:1030E0006D732C2074686520414449533136343661
:1030F00035207265696E697469616C697A657320DF
:10310000616E64207374617274732070726F647581
:1031100063696E67206461746120616761696E2E06
:103120000D00000009466C617368206D656D6F725B
:103130007920757064617465206661696C7572656B
:1031400021506C6561736520656E737572652074BE
:103150006861742056444420A1DD2033205620614C
:103160006E64207265706561742074686520757086
:103170006461746520617474656D70742E0D000057
:10318000A0310008000000204C0000008C25000841
:10319000EC3100084C000020340400009C2500089D
:1031A000007A030A0000000000000000010203048E
:1031B00006070809000000000102030401020304DD
:1031C000060708090000000000A000000000000041
:1031D000000000000000803F000000000000000030
:0C31E000000000000000000000000000E3
:040000050800018965
:00000001FF
